{
  "contractName": "main",
  "abi": [
    {
      "inputs": [
        {
          "internalType": "contract p2p",
          "name": "peer2peer",
          "type": "address"
        }
      ],
      "stateMutability": "nonpayable",
      "type": "constructor"
    },
    {
      "inputs": [],
      "name": "registerProsumer",
      "outputs": [],
      "stateMutability": "nonpayable",
      "type": "function"
    },
    {
      "inputs": [],
      "name": "deposit",
      "outputs": [],
      "stateMutability": "payable",
      "type": "function"
    },
    {
      "inputs": [],
      "name": "withdraw",
      "outputs": [],
      "stateMutability": "payable",
      "type": "function"
    },
    {
      "inputs": [],
      "name": "checkEtherStatus",
      "outputs": [
        {
          "internalType": "uint256",
          "name": "",
          "type": "uint256"
        }
      ],
      "stateMutability": "view",
      "type": "function"
    },
    {
      "inputs": [],
      "name": "checkEnergyStatus",
      "outputs": [
        {
          "internalType": "int256",
          "name": "",
          "type": "int256"
        }
      ],
      "stateMutability": "view",
      "type": "function"
    },
    {
      "inputs": [
        {
          "internalType": "int256",
          "name": "energy",
          "type": "int256"
        }
      ],
      "name": "buyEnergy",
      "outputs": [],
      "stateMutability": "nonpayable",
      "type": "function"
    },
    {
      "inputs": [
        {
          "internalType": "int256",
          "name": "energy",
          "type": "int256"
        }
      ],
      "name": "sellEnergy",
      "outputs": [],
      "stateMutability": "nonpayable",
      "type": "function"
    },
    {
      "inputs": [
        {
          "internalType": "int256",
          "name": "energy",
          "type": "int256"
        }
      ],
      "name": "energyRequest",
      "outputs": [],
      "stateMutability": "nonpayable",
      "type": "function"
    },
    {
      "inputs": [
        {
          "internalType": "int256",
          "name": "energy",
          "type": "int256"
        }
      ],
      "name": "setEnergyStatus",
      "outputs": [],
      "stateMutability": "nonpayable",
      "type": "function"
    }
  ],
  "bytecode": "0x60806040523480156200001157600080fd5b506040516200186b3803806200186b8339818101604052810190620000379190620000fc565b806000806101000a81548173ffffffffffffffffffffffffffffffffffffffff021916908373ffffffffffffffffffffffffffffffffffffffff160217905550506200012e565b600080fd5b600073ffffffffffffffffffffffffffffffffffffffff82169050919050565b6000620000b08262000083565b9050919050565b6000620000c482620000a3565b9050919050565b620000d681620000b7565b8114620000e257600080fd5b50565b600081519050620000f681620000cb565b92915050565b6000602082840312156200011557620001146200007e565b5b60006200012584828501620000e5565b91505092915050565b61172d806200013e6000396000f3fe6080604052600436106100865760003560e01c8063b0dc011211610059578063b0dc011214610100578063c1937c5d14610129578063d0e30db014610152578063eb10b5a91461015c578063f746716a1461018757610086565b80633ccfd60b1461008b5780633ebe4773146100955780634d7eec1d146100c0578063a3818880146100e9575b600080fd5b6100936101b0565b005b3480156100a157600080fd5b506100aa6103f3565b6040516100b791906111b4565b60405180910390f35b3480156100cc57600080fd5b506100e760048036038101906100e2919061120a565b610585565b005b3480156100f557600080fd5b506100fe6107e3565b005b34801561010c57600080fd5b506101276004803603810190610122919061120a565b610962565b005b34801561013557600080fd5b50610150600480360381019061014b919061120a565b610aed565b005b61015a610d4b565b005b34801561016857600080fd5b50610171610ee8565b60405161017e9190611246565b60405180910390f35b34801561019357600080fd5b506101ae60048036038101906101a9919061120a565b61107a565b005b600073ffffffffffffffffffffffffffffffffffffffff1660008054906101000a900473ffffffffffffffffffffffffffffffffffffffff1673ffffffffffffffffffffffffffffffffffffffff16635d1ca6316040518163ffffffff1660e01b8152600401602060405180830381865afa158015610233573d6000803e3d6000fd5b505050506040513d601f19601f8201168201806040525081019061025791906112bf565b73ffffffffffffffffffffffffffffffffffffffff16036102ad576040517f08c379a00000000000000000000000000000000000000000000000000000000081526004016102a490611349565b60405180910390fd5b60008060009054906101000a900473ffffffffffffffffffffffffffffffffffffffff1673ffffffffffffffffffffffffffffffffffffffff166399e1d3016040518163ffffffff1660e01b8152600401602060405180830381865afa15801561031b573d6000803e3d6000fd5b505050506040513d601f19601f8201168201806040525081019061033f919061137e565b1215610380576040517f08c379a00000000000000000000000000000000000000000000000000000000081526004016103779061141d565b60405180910390fd5b600061038a610ee8565b126103f1573373ffffffffffffffffffffffffffffffffffffffff166108fc678ac7230489e800006103ba6103f3565b6103c4919061146c565b9081150290604051600060405180830381858888f193505050501580156103ef573d6000803e3d6000fd5b505b565b60008073ffffffffffffffffffffffffffffffffffffffff1660008054906101000a900473ffffffffffffffffffffffffffffffffffffffff1673ffffffffffffffffffffffffffffffffffffffff16635d1ca6316040518163ffffffff1660e01b8152600401602060405180830381865afa158015610477573d6000803e3d6000fd5b505050506040513d601f19601f8201168201806040525081019061049b91906112bf565b73ffffffffffffffffffffffffffffffffffffffff16036104f1576040517f08c379a00000000000000000000000000000000000000000000000000000000081526004016104e890611349565b60405180910390fd5b60008054906101000a900473ffffffffffffffffffffffffffffffffffffffff1673ffffffffffffffffffffffffffffffffffffffff1663ea46193e6040518163ffffffff1660e01b8152600401602060405180830381865afa15801561055c573d6000803e3d6000fd5b505050506040513d601f19601f8201168201806040525081019061058091906114da565b905090565b600073ffffffffffffffffffffffffffffffffffffffff1660008054906101000a900473ffffffffffffffffffffffffffffffffffffffff1673ffffffffffffffffffffffffffffffffffffffff16635d1ca6316040518163ffffffff1660e01b8152600401602060405180830381865afa158015610608573d6000803e3d6000fd5b505050506040513d601f19601f8201168201806040525081019061062c91906112bf565b73ffffffffffffffffffffffffffffffffffffffff1603610682576040517f08c379a000000000000000000000000000000000000000000000000000000000815260040161067990611349565b60405180910390fd5b808060008054906101000a900473ffffffffffffffffffffffffffffffffffffffff1673ffffffffffffffffffffffffffffffffffffffff1663ea46193e6040518163ffffffff1660e01b8152600401602060405180830381865afa1580156106ef573d6000803e3d6000fd5b505050506040513d601f19601f8201168201806040525081019061071391906114da565b1015610754576040517f08c379a000000000000000000000000000000000000000000000000000000000815260040161074b90611579565b60405180910390fd5b60008054906101000a900473ffffffffffffffffffffffffffffffffffffffff1673ffffffffffffffffffffffffffffffffffffffff16634d7eec1d836040518263ffffffff1660e01b81526004016107ad9190611246565b600060405180830381600087803b1580156107c757600080fd5b505af11580156107db573d6000803e3d6000fd5b505050505050565b600073ffffffffffffffffffffffffffffffffffffffff1660008054906101000a900473ffffffffffffffffffffffffffffffffffffffff1673ffffffffffffffffffffffffffffffffffffffff16635d1ca6316040518163ffffffff1660e01b8152600401602060405180830381865afa158015610866573d6000803e3d6000fd5b505050506040513d601f19601f8201168201806040525081019061088a91906112bf565b73ffffffffffffffffffffffffffffffffffffffff16146108e0576040517f08c379a00000000000000000000000000000000000000000000000000000000081526004016108d7906115e5565b60405180910390fd5b60008054906101000a900473ffffffffffffffffffffffffffffffffffffffff1673ffffffffffffffffffffffffffffffffffffffff1663b72162e26040518163ffffffff1660e01b8152600401600060405180830381600087803b15801561094857600080fd5b505af115801561095c573d6000803e3d6000fd5b50505050565b600073ffffffffffffffffffffffffffffffffffffffff1660008054906101000a900473ffffffffffffffffffffffffffffffffffffffff1673ffffffffffffffffffffffffffffffffffffffff16635d1ca6316040518163ffffffff1660e01b8152600401602060405180830381865afa1580156109e5573d6000803e3d6000fd5b505050506040513d601f19601f82011682018060405250810190610a0991906112bf565b73ffffffffffffffffffffffffffffffffffffffff1603610a5f576040517f08c379a0000000000000000000000000000000000000000000000000000000008152600401610a5690611349565b60405180910390fd5b60008054906101000a900473ffffffffffffffffffffffffffffffffffffffff1673ffffffffffffffffffffffffffffffffffffffff166376f39585826040518263ffffffff1660e01b8152600401610ab89190611246565b600060405180830381600087803b158015610ad257600080fd5b505af1158015610ae6573d6000803e3d6000fd5b5050505050565b600073ffffffffffffffffffffffffffffffffffffffff1660008054906101000a900473ffffffffffffffffffffffffffffffffffffffff1673ffffffffffffffffffffffffffffffffffffffff16635d1ca6316040518163ffffffff1660e01b8152600401602060405180830381865afa158015610b70573d6000803e3d6000fd5b505050506040513d601f19601f82011682018060405250810190610b9491906112bf565b73ffffffffffffffffffffffffffffffffffffffff1603610bea576040517f08c379a0000000000000000000000000000000000000000000000000000000008152600401610be190611349565b60405180910390fd5b808060008054906101000a900473ffffffffffffffffffffffffffffffffffffffff1673ffffffffffffffffffffffffffffffffffffffff166399e1d3016040518163ffffffff1660e01b8152600401602060405180830381865afa158015610c57573d6000803e3d6000fd5b505050506040513d601f19601f82011682018060405250810190610c7b919061137e565b1215610cbc576040517f08c379a0000000000000000000000000000000000000000000000000000000008152600401610cb390611677565b60405180910390fd5b60008054906101000a900473ffffffffffffffffffffffffffffffffffffffff1673ffffffffffffffffffffffffffffffffffffffff1663c1937c5d836040518263ffffffff1660e01b8152600401610d159190611246565b600060405180830381600087803b158015610d2f57600080fd5b505af1158015610d43573d6000803e3d6000fd5b505050505050565b600073ffffffffffffffffffffffffffffffffffffffff1660008054906101000a900473ffffffffffffffffffffffffffffffffffffffff1673ffffffffffffffffffffffffffffffffffffffff16635d1ca6316040518163ffffffff1660e01b8152600401602060405180830381865afa158015610dce573d6000803e3d6000fd5b505050506040513d601f19601f82011682018060405250810190610df291906112bf565b73ffffffffffffffffffffffffffffffffffffffff1603610e48576040517f08c379a0000000000000000000000000000000000000000000000000000000008152600401610e3f90611349565b60405180910390fd5b60008054906101000a900473ffffffffffffffffffffffffffffffffffffffff1673ffffffffffffffffffffffffffffffffffffffff1663a9eebb6a678ac7230489e8000034610e9891906116c6565b6040518263ffffffff1660e01b8152600401610eb491906111b4565b600060405180830381600087803b158015610ece57600080fd5b505af1158015610ee2573d6000803e3d6000fd5b50505050565b60008073ffffffffffffffffffffffffffffffffffffffff1660008054906101000a900473ffffffffffffffffffffffffffffffffffffffff1673ffffffffffffffffffffffffffffffffffffffff16635d1ca6316040518163ffffffff1660e01b8152600401602060405180830381865afa158015610f6c573d6000803e3d6000fd5b505050506040513d601f19601f82011682018060405250810190610f9091906112bf565b73ffffffffffffffffffffffffffffffffffffffff1603610fe6576040517f08c379a0000000000000000000000000000000000000000000000000000000008152600401610fdd90611349565b60405180910390fd5b60008054906101000a900473ffffffffffffffffffffffffffffffffffffffff1673ffffffffffffffffffffffffffffffffffffffff166399e1d3016040518163ffffffff1660e01b8152600401602060405180830381865afa158015611051573d6000803e3d6000fd5b505050506040513d601f19601f82011682018060405250810190611075919061137e565b905090565b600073ffffffffffffffffffffffffffffffffffffffff1660008054906101000a900473ffffffffffffffffffffffffffffffffffffffff1673ffffffffffffffffffffffffffffffffffffffff16635d1ca6316040518163ffffffff1660e01b8152600401602060405180830381865afa1580156110fd573d6000803e3d6000fd5b505050506040513d601f19601f8201168201806040525081019061112191906112bf565b73ffffffffffffffffffffffffffffffffffffffff1603611177576040517f08c379a000000000000000000000000000000000000000000000000000000000815260040161116e90611349565b60405180910390fd5b600081131561118e5761118981610aed565b611198565b61119781610585565b5b50565b6000819050919050565b6111ae8161119b565b82525050565b60006020820190506111c960008301846111a5565b92915050565b600080fd5b6000819050919050565b6111e7816111d4565b81146111f257600080fd5b50565b600081359050611204816111de565b92915050565b6000602082840312156112205761121f6111cf565b5b600061122e848285016111f5565b91505092915050565b611240816111d4565b82525050565b600060208201905061125b6000830184611237565b92915050565b600073ffffffffffffffffffffffffffffffffffffffff82169050919050565b600061128c82611261565b9050919050565b61129c81611281565b81146112a757600080fd5b50565b6000815190506112b981611293565b92915050565b6000602082840312156112d5576112d46111cf565b5b60006112e3848285016112aa565b91505092915050565b600082825260208201905092915050565b7f546869732070726f73756d657220616c7265616479206578697374732e000000600082015250565b6000611333601d836112ec565b915061133e826112fd565b602082019050919050565b6000602082019050818103600083015261136281611326565b9050919050565b600081519050611378816111de565b92915050565b600060208284031215611394576113936111cf565b5b60006113a284828501611369565b91505092915050565b7f54686973206275796572206861732061206e6567617469766520656e6572677960008201527f2062616c616e636520616e642063616e6e6f742077697468647261772e000000602082015250565b6000611407603d836112ec565b9150611412826113ab565b604082019050919050565b60006020820190508181036000830152611436816113fa565b9050919050565b7f4e487b7100000000000000000000000000000000000000000000000000000000600052601160045260246000fd5b60006114778261119b565b91506114828361119b565b92508282026114908161119b565b915082820484148315176114a7576114a661143d565b5b5092915050565b6114b78161119b565b81146114c257600080fd5b50565b6000815190506114d4816114ae565b92915050565b6000602082840312156114f0576114ef6111cf565b5b60006114fe848285016114c5565b91505092915050565b7f5468697320627579657220646f6573206e6f74206861766520656e6f7567682060008201527f6574686572732e00000000000000000000000000000000000000000000000000602082015250565b60006115636027836112ec565b915061156e82611507565b604082019050919050565b6000602082019050818103600083015261159281611556565b9050919050565b7f546869732070726f73756d657220646f6573206e6f742065786973742e000000600082015250565b60006115cf601d836112ec565b91506115da82611599565b602082019050919050565b600060208201905081810360008301526115fe816115c2565b9050919050565b7f546869732073656c6c657220697320747279696e6720746f2073656c6c20656e60008201527f6572677920697420646f6573206e6f7420686176652e00000000000000000000602082015250565b60006116616036836112ec565b915061166c82611605565b604082019050919050565b6000602082019050818103600083015261169081611654565b9050919050565b7f4e487b7100000000000000000000000000000000000000000000000000000000600052601260045260246000fd5b60006116d18261119b565b91506116dc8361119b565b9250826116ec576116eb611697565b5b82820490509291505056fea2646970667358221220fb3b63578a66d40cd1ef8879da06b22e38a481ebc0d2e728485a3b2b58b50fc964736f6c63430008130033",
  "immutableReferences": {},
  "source": "pragma solidity >=0.4.22 < 0.8.20;\n\ncontract main {\n\n    p2p p2p_contract;\n\n    constructor (p2p peer2peer) {\n        p2p_contract = peer2peer;\n    }\n\n    function registerProsumer() public noProsumerExists {\n        // msg.sender\n        p2p_contract.addNewProsumer();\n    }\n\n    function deposit() public prosumerExists payable{\n        // msg.value is the deposit value\n        // modifier checks that the user actually exists\n        p2p_contract.setEtherBalance(msg.value/10e18);    \n    }\n\n    \n    function withdraw() public prosumerExists  hasPositiveEnergyBalance payable{\n        // users can only withdraw if they have an energy balance >= 0\n        if(checkEnergyStatus()>=0){\n            // withdraw\n            payable(msg.sender).transfer(checkEtherStatus()*10e18);\n        }\n            \n    }\n    function checkEtherStatus() public view prosumerExists returns (uint){\n        // msg.value is the deposit value\n        // modifier checks that the user actually existss\n        return p2p_contract.getEtherBalance();\n    }\n\n    function checkEnergyStatus() public view prosumerExists returns (int){\n        // modifier checks that the user actually existss\n        return p2p_contract.getEnergyBalance();\n    }\n\n    function buyEnergy(int energy) public prosumerExists buyerHasEnoughEthers(uint(energy)) {\n        p2p_contract.buyEnergy(energy);\n    }\n\n    function sellEnergy(int energy) public prosumerExists sellerHasEnoughEnergy(energy){\n        p2p_contract.sellEnergy(energy);\n    }\n\n    function energyRequest(int energy) public prosumerExists  {\n        \n        if (energy > 0){\n            //if someone has positive energy balance they wanna sell\n            sellEnergy(energy);\n        } else {\n            //if someone has negative energy balance they wanna buy\n            buyEnergy(energy);\n        }\n    }\n\n    function setEnergyStatus(int energy) public prosumerExists {\n        p2p_contract.setEnergyBalance(energy);\n    }\n\n    // function getEnergyStatus() public prosumerExists {\n    //     p2p_contract.getEnergyBalance();\n    // }\n\n    modifier prosumerExists() {\n        require(p2p_contract.getId() != address(0), \"This prosumer already exists.\");\n        _;\n    }\n\n    modifier noProsumerExists() {\n        require(p2p_contract.getId() == address(0), \"This prosumer does not exist.\");\n        _;\n    }\n\n    modifier buyerHasEnoughEthers(uint ethers) {\n\n        require(p2p_contract.getEtherBalance() >= ethers,\"This buyer does not have enough ethers.\");\n        _;\n    }\n\n    modifier sellerHasEnoughEnergy(int energy){\n        require(p2p_contract.getEnergyBalance()>=energy, \"This seller is trying to sell energy it does not have.\");\n        _;\n    }\n    \n    modifier hasPositiveEnergyBalance(){\n        require(p2p_contract.getEnergyBalance()>=0, \"This buyer has a negative energy balance and cannot withdraw.\");\n        _;\n    }\n\n\n}\n\n\ncontract p2p {\n    struct Prosumer {\n        address id;\n        int energyBalance;\n        uint etherBalance;\n    }\n\n    mapping (address=>Prosumer) prosumers;\n    address[] listOfProsumers;\n\n    function addNewProsumer() public {\n        // prosumer = Prosumer(msg.sender,0,0);\n        prosumers[msg.sender] = Prosumer(msg.sender,0,0);\n        listOfProsumers.push(msg.sender);\n    }\n\n    function buyEnergy(int energy) public {\n        // iterate over listOfProsumers\n        // find someone that has positive energy balance and transfer\n        for (uint i = 0; i<listOfProsumers.length; i++){\n            //they are a seller\n            if(prosumers[listOfProsumers[i]].energyBalance>0){\n                    // if prosumer we are on has enough energy to sell to cover our transaction do it all\n                if (prosumers[listOfProsumers[i]].energyBalance>=energy){\n\n                    // increase our energy balance\n                    prosumers[msg.sender].energyBalance += energy;\n\n                    // decrease their energy balance\n                    prosumers[listOfProsumers[i]].energyBalance -= energy;\n\n                    // increase their ether balance\n                    prosumers[msg.sender].etherBalance += uint(energy);\n\n                    // decrease our ether balance\n                    prosumers[listOfProsumers[i]].etherBalance -= uint(energy);\n\n                    break;\n                    //break loop as no more buying needs to occur\n\n                //if prosumer can sell less energy than we need but can sell some\n                } else if (energy>prosumers[listOfProsumers[i]].energyBalance){\n\n                    // update how much energy we still want to buy\n                    energy -= prosumers[listOfProsumers[i]].energyBalance;\n\n                    // increase our energy balance by their energy balance\n                    prosumers[msg.sender].energyBalance += prosumers[listOfProsumers[i]].energyBalance;\n\n                    // decrease our ether balance by how much we bought\n                    prosumers[msg.sender].etherBalance -= uint(prosumers[listOfProsumers[i]].energyBalance);\n\n                    // increase their ether balance to how much they sold\n                    prosumers[listOfProsumers[i]].etherBalance += uint(prosumers[listOfProsumers[i]].energyBalance);\n\n                    // decrease their energy balance to zero\n                    prosumers[listOfProsumers[i]].energyBalance = 0;\n\n                }\n            }\n\n            \n\n        }\n    }\n\n    function sellEnergy(int energy) public {\n\n        //check that we can sell this much energy\n\n        for (uint i = 0; i<listOfProsumers.length; i++){\n            // //they want to buy and have enough ethers to do so\n            if (prosumers[listOfProsumers[i]].energyBalance<0 ){\n\n                int amountTheyCanBuy = prosumers[listOfProsumers[i]].energyBalance;\n                // //check whether they have less ethers than they do a need for energy\n                // //this means that we cannot sell them how much energy we need but only some.\n                // if((-prosumers[listOfProsumers[i]].energyBalance)>prosumers[listOfProsumers[i]].etherBalance){\n                //     //they do not have enough ethers to pay for all the energy they want\n                //     amountTheyCanBuy = prosumers[listOfProsumers[i]].etherBalance;\n                // } else {\n                //     //they have enough ethers so the amount they can buy is the negative of their negative energy balance\n                //     // energy balance = -6\n                //     // amount they can buy = +6\n                //     amountTheyCanBuy = -prosumers[listOfProsumers[i]].energyBalance;\n                // }\n\n\n\n\n                // they want to buy all the energy we are selling\n                // if the prosumers energy balance is enough \n                if(amountTheyCanBuy>=energy){\n                    \n                    // increase their energy balance\n                    // decrease their ether balance\n                    // increase our ether balance\n                    // decrease our energy balance\n\n                    prosumers[listOfProsumers[i]].energyBalance+=energy;\n                    prosumers[listOfProsumers[i]].etherBalance-=uint(energy);\n                    \n                    prosumers[msg.sender].energyBalance -= energy;\n                    prosumers[msg.sender].etherBalance += uint(energy);\n\n                //if the energy they want to to buy is less than what we want to sell but we still will sell them some\n\n\n                // they do not wanna buy all the energy we wanna sell (their energy balance is bigger than -energy)\n                // prosumers[listOfProsumers[i]].energyBalance>-energy \n                \n                // and they have enough money to cover this transaction\n                //  && prosumers[listOfProsumers[i]].etherBalance>prosumers[listOfProsumers[i]].energyBalance\n\n                } else if (amountTheyCanBuy<energy ){\n                    \n                    //give them all the energy they want to buy.\n                    //  minus the energy we want to sell by their absolute balance, this means that our positive energy value goes down\n                    // energy -= abs(prosumers[listOfProsumers[i]].energyBalance);\n\n                    //amount we are still looking to sell goes down by amountTheyCanBuy\n                    energy-=amountTheyCanBuy;\n                    //amount of energy we have goes down by amountTheyCanBuy\n                    prosumers[msg.sender].energyBalance -= amountTheyCanBuy;\n\n                    //our ether balance goes up by how much we sold\n                    prosumers[msg.sender].etherBalance += uint(amountTheyCanBuy);\n\n                    // their ether balance goes down by how much they bought\n                    prosumers[listOfProsumers[i]].etherBalance-=uint(amountTheyCanBuy);\n\n                    // their energy balance goes up by how much they bought\n                    prosumers[listOfProsumers[i]].energyBalance+=amountTheyCanBuy;\n                }\n            }\n        }\n    }\n\n    function getEnergyBalance() public view returns (int) {\n        return prosumers[msg.sender].energyBalance;\n    }\n\n    function setEnergyBalance(int energy) public {\n        prosumers[msg.sender].energyBalance=energy;\n    }\n\n    function getEtherBalance() public view returns (uint) {\n        return prosumers[msg.sender].etherBalance;\n    }\n\n    function getId() public view returns (address) {\n        return prosumers[msg.sender].id;\n    }\n\n    function setEtherBalance(uint ethers) public {\n        prosumers[msg.sender].etherBalance=ethers;\n    }\n\n}",
  "sourcePath": "/Users/antonteasdale/Documents/blockchain/cw/contracts/contracts.sol",
  "compiler": {
    "name": "solc",
    "version": "0.8.19+commit.7dd6d404.Emscripten.clang"
  },
  "schemaVersion": "3.4.13",
  "updatedAt": "2023-05-02T15:05:30.423Z",
  "devdoc": {
    "kind": "dev",
    "methods": {},
    "version": 1
  },
  "userdoc": {
    "kind": "user",
    "methods": {},
    "version": 1
  }
}