{
  "contractName": "p2p",
  "abi": [
    {
      "inputs": [],
      "name": "addNewProsumer",
      "outputs": [],
      "stateMutability": "nonpayable",
      "type": "function"
    },
    {
      "inputs": [
        {
          "internalType": "int256",
          "name": "energy",
          "type": "int256"
        }
      ],
      "name": "buyEnergy",
      "outputs": [],
      "stateMutability": "nonpayable",
      "type": "function"
    },
    {
      "inputs": [
        {
          "internalType": "int256",
          "name": "energy",
          "type": "int256"
        }
      ],
      "name": "sellEnergy",
      "outputs": [],
      "stateMutability": "nonpayable",
      "type": "function"
    },
    {
      "inputs": [],
      "name": "getEnergyBalance",
      "outputs": [
        {
          "internalType": "int256",
          "name": "",
          "type": "int256"
        }
      ],
      "stateMutability": "view",
      "type": "function"
    },
    {
      "inputs": [
        {
          "internalType": "int256",
          "name": "energy",
          "type": "int256"
        }
      ],
      "name": "setEnergyBalance",
      "outputs": [],
      "stateMutability": "nonpayable",
      "type": "function"
    },
    {
      "inputs": [],
      "name": "getEtherBalance",
      "outputs": [
        {
          "internalType": "uint256",
          "name": "",
          "type": "uint256"
        }
      ],
      "stateMutability": "view",
      "type": "function"
    },
    {
      "inputs": [],
      "name": "getId",
      "outputs": [
        {
          "internalType": "address",
          "name": "",
          "type": "address"
        }
      ],
      "stateMutability": "view",
      "type": "function"
    },
    {
      "inputs": [
        {
          "internalType": "uint256",
          "name": "ethers",
          "type": "uint256"
        }
      ],
      "name": "setEtherBalance",
      "outputs": [],
      "stateMutability": "nonpayable",
      "type": "function"
    }
  ],
  "bytecode": "0x608060405234801561001057600080fd5b506113ed806100206000396000f3fe608060405234801561001057600080fd5b50600436106100885760003560e01c8063a9eebb6a1161005b578063a9eebb6a14610101578063b72162e21461011d578063c1937c5d14610127578063ea46193e1461014357610088565b80634d7eec1d1461008d5780635d1ca631146100a957806376f39585146100c757806399e1d301146100e3575b600080fd5b6100a760048036038101906100a291906110e2565b610161565b005b6100b16108d5565b6040516100be9190611150565b60405180910390f35b6100e160048036038101906100dc91906110e2565b61093e565b005b6100eb610987565b6040516100f8919061117a565b60405180910390f35b61011b600480360381019061011691906111cb565b6109d0565b005b610125610a19565b005b610141600480360381019061013c91906110e2565b610b4d565b005b61014b61105e565b6040516101589190611207565b60405180910390f35b60005b6001805490508110156108d15760008060006001848154811061018a57610189611222565b5b9060005260206000200160009054906101000a900473ffffffffffffffffffffffffffffffffffffffff1673ffffffffffffffffffffffffffffffffffffffff1673ffffffffffffffffffffffffffffffffffffffff1681526020019081526020016000206001015413156108be57816000806001848154811061021157610210611222565b5b9060005260206000200160009054906101000a900473ffffffffffffffffffffffffffffffffffffffff1673ffffffffffffffffffffffffffffffffffffffff1673ffffffffffffffffffffffffffffffffffffffff168152602001908152602001600020600101541261046057816000803373ffffffffffffffffffffffffffffffffffffffff1673ffffffffffffffffffffffffffffffffffffffff16815260200190815260200160002060010160008282546102d09190611280565b9250508190555081600080600184815481106102ef576102ee611222565b5b9060005260206000200160009054906101000a900473ffffffffffffffffffffffffffffffffffffffff1673ffffffffffffffffffffffffffffffffffffffff1673ffffffffffffffffffffffffffffffffffffffff168152602001908152602001600020600101600082825461036691906112c4565b92505081905550816000803373ffffffffffffffffffffffffffffffffffffffff1673ffffffffffffffffffffffffffffffffffffffff16815260200190815260200160002060020160008282546103be9190611307565b9250508190555081600080600184815481106103dd576103dc611222565b5b9060005260206000200160009054906101000a900473ffffffffffffffffffffffffffffffffffffffff1673ffffffffffffffffffffffffffffffffffffffff1673ffffffffffffffffffffffffffffffffffffffff1681526020019081526020016000206002016000828254610454919061133b565b925050819055506108d1565b6000806001838154811061047757610476611222565b5b9060005260206000200160009054906101000a900473ffffffffffffffffffffffffffffffffffffffff1673ffffffffffffffffffffffffffffffffffffffff1673ffffffffffffffffffffffffffffffffffffffff168152602001908152602001600020600101548213156108bd57600080600183815481106104fe576104fd611222565b5b9060005260206000200160009054906101000a900473ffffffffffffffffffffffffffffffffffffffff1673ffffffffffffffffffffffffffffffffffffffff1673ffffffffffffffffffffffffffffffffffffffff168152602001908152602001600020600101548261057291906112c4565b91506000806001838154811061058b5761058a611222565b5b9060005260206000200160009054906101000a900473ffffffffffffffffffffffffffffffffffffffff1673ffffffffffffffffffffffffffffffffffffffff1673ffffffffffffffffffffffffffffffffffffffff168152602001908152602001600020600101546000803373ffffffffffffffffffffffffffffffffffffffff1673ffffffffffffffffffffffffffffffffffffffff16815260200190815260200160002060010160008282546106449190611280565b925050819055506000806001838154811061066257610661611222565b5b9060005260206000200160009054906101000a900473ffffffffffffffffffffffffffffffffffffffff1673ffffffffffffffffffffffffffffffffffffffff1673ffffffffffffffffffffffffffffffffffffffff168152602001908152602001600020600101546000803373ffffffffffffffffffffffffffffffffffffffff1673ffffffffffffffffffffffffffffffffffffffff168152602001908152602001600020600201600082825461071b919061133b565b925050819055506000806001838154811061073957610738611222565b5b9060005260206000200160009054906101000a900473ffffffffffffffffffffffffffffffffffffffff1673ffffffffffffffffffffffffffffffffffffffff1673ffffffffffffffffffffffffffffffffffffffff16815260200190815260200160002060010154600080600184815481106107b9576107b8611222565b5b9060005260206000200160009054906101000a900473ffffffffffffffffffffffffffffffffffffffff1673ffffffffffffffffffffffffffffffffffffffff1673ffffffffffffffffffffffffffffffffffffffff16815260200190815260200160002060020160008282546108309190611307565b925050819055506000806000600184815481106108505761084f611222565b5b9060005260206000200160009054906101000a900473ffffffffffffffffffffffffffffffffffffffff1673ffffffffffffffffffffffffffffffffffffffff1673ffffffffffffffffffffffffffffffffffffffff168152602001908152602001600020600101819055505b5b80806108c99061136f565b915050610164565b5050565b60008060003373ffffffffffffffffffffffffffffffffffffffff1673ffffffffffffffffffffffffffffffffffffffff16815260200190815260200160002060000160009054906101000a900473ffffffffffffffffffffffffffffffffffffffff16905090565b806000803373ffffffffffffffffffffffffffffffffffffffff1673ffffffffffffffffffffffffffffffffffffffff1681526020019081526020016000206001018190555050565b60008060003373ffffffffffffffffffffffffffffffffffffffff1673ffffffffffffffffffffffffffffffffffffffff16815260200190815260200160002060010154905090565b806000803373ffffffffffffffffffffffffffffffffffffffff1673ffffffffffffffffffffffffffffffffffffffff1681526020019081526020016000206002018190555050565b60405180606001604052803373ffffffffffffffffffffffffffffffffffffffff1681526020016000815260200160008152506000803373ffffffffffffffffffffffffffffffffffffffff1673ffffffffffffffffffffffffffffffffffffffff16815260200190815260200160002060008201518160000160006101000a81548173ffffffffffffffffffffffffffffffffffffffff021916908373ffffffffffffffffffffffffffffffffffffffff16021790555060208201518160010155604082015181600201559050506001339080600181540180825580915050600190039060005260206000200160009091909190916101000a81548173ffffffffffffffffffffffffffffffffffffffff021916908373ffffffffffffffffffffffffffffffffffffffff160217905550565b60005b60018054905081101561105a57600080600060018481548110610b7657610b75611222565b5b9060005260206000200160009054906101000a900473ffffffffffffffffffffffffffffffffffffffff1673ffffffffffffffffffffffffffffffffffffffff1673ffffffffffffffffffffffffffffffffffffffff16815260200190815260200160002060010154121561104757600080600060018481548110610bfe57610bfd611222565b5b9060005260206000200160009054906101000a900473ffffffffffffffffffffffffffffffffffffffff1673ffffffffffffffffffffffffffffffffffffffff1673ffffffffffffffffffffffffffffffffffffffff168152602001908152602001600020600101549050828112610e51578260008060018581548110610c8857610c87611222565b5b9060005260206000200160009054906101000a900473ffffffffffffffffffffffffffffffffffffffff1673ffffffffffffffffffffffffffffffffffffffff1673ffffffffffffffffffffffffffffffffffffffff1681526020019081526020016000206001016000828254610cff9190611280565b925050819055508260008060018581548110610d1e57610d1d611222565b5b9060005260206000200160009054906101000a900473ffffffffffffffffffffffffffffffffffffffff1673ffffffffffffffffffffffffffffffffffffffff1673ffffffffffffffffffffffffffffffffffffffff1681526020019081526020016000206002016000828254610d95919061133b565b92505081905550826000803373ffffffffffffffffffffffffffffffffffffffff1673ffffffffffffffffffffffffffffffffffffffff1681526020019081526020016000206001016000828254610ded91906112c4565b92505081905550826000803373ffffffffffffffffffffffffffffffffffffffff1673ffffffffffffffffffffffffffffffffffffffff1681526020019081526020016000206002016000828254610e459190611307565b92505081905550611045565b82811215611044578083610e6591906112c4565b9250806000803373ffffffffffffffffffffffffffffffffffffffff1673ffffffffffffffffffffffffffffffffffffffff1681526020019081526020016000206001016000828254610eb891906112c4565b92505081905550806000803373ffffffffffffffffffffffffffffffffffffffff1673ffffffffffffffffffffffffffffffffffffffff1681526020019081526020016000206002016000828254610f109190611307565b925050819055508060008060018581548110610f2f57610f2e611222565b5b9060005260206000200160009054906101000a900473ffffffffffffffffffffffffffffffffffffffff1673ffffffffffffffffffffffffffffffffffffffff1673ffffffffffffffffffffffffffffffffffffffff1681526020019081526020016000206002016000828254610fa6919061133b565b925050819055508060008060018581548110610fc557610fc4611222565b5b9060005260206000200160009054906101000a900473ffffffffffffffffffffffffffffffffffffffff1673ffffffffffffffffffffffffffffffffffffffff1673ffffffffffffffffffffffffffffffffffffffff168152602001908152602001600020600101600082825461103c9190611280565b925050819055505b5b505b80806110529061136f565b915050610b50565b5050565b60008060003373ffffffffffffffffffffffffffffffffffffffff1673ffffffffffffffffffffffffffffffffffffffff16815260200190815260200160002060020154905090565b600080fd5b6000819050919050565b6110bf816110ac565b81146110ca57600080fd5b50565b6000813590506110dc816110b6565b92915050565b6000602082840312156110f8576110f76110a7565b5b6000611106848285016110cd565b91505092915050565b600073ffffffffffffffffffffffffffffffffffffffff82169050919050565b600061113a8261110f565b9050919050565b61114a8161112f565b82525050565b60006020820190506111656000830184611141565b92915050565b611174816110ac565b82525050565b600060208201905061118f600083018461116b565b92915050565b6000819050919050565b6111a881611195565b81146111b357600080fd5b50565b6000813590506111c58161119f565b92915050565b6000602082840312156111e1576111e06110a7565b5b60006111ef848285016111b6565b91505092915050565b61120181611195565b82525050565b600060208201905061121c60008301846111f8565b92915050565b7f4e487b7100000000000000000000000000000000000000000000000000000000600052603260045260246000fd5b7f4e487b7100000000000000000000000000000000000000000000000000000000600052601160045260246000fd5b600061128b826110ac565b9150611296836110ac565b9250828201905082811215600083121683821260008412151617156112be576112bd611251565b5b92915050565b60006112cf826110ac565b91506112da836110ac565b925082820390508181126000841216828213600085121516171561130157611300611251565b5b92915050565b600061131282611195565b915061131d83611195565b925082820190508082111561133557611334611251565b5b92915050565b600061134682611195565b915061135183611195565b925082820390508181111561136957611368611251565b5b92915050565b600061137a82611195565b91507fffffffffffffffffffffffffffffffffffffffffffffffffffffffffffffffff82036113ac576113ab611251565b5b60018201905091905056fea264697066735822122008d0c2b07b25e0eda1d1ec6a2563c966280037c37ce283a500497b3802ceb94e64736f6c63430008130033",
  "immutableReferences": {},
  "source": "pragma solidity >=0.4.22 < 0.8.20;\n\ncontract main {\n\n    p2p p2p_contract;\n\n    constructor (p2p peer2peer) {\n        p2p_contract = peer2peer;\n    }\n\n    function registerProsumer() public noProsumerExists {\n        // msg.sender\n        p2p_contract.addNewProsumer();\n    }\n\n    function deposit() public prosumerExists payable{\n        // msg.value is the deposit value\n        // modifier checks that the user actually exists\n        p2p_contract.setEtherBalance(msg.value/10e18);    \n    }\n\n    \n    function withdraw() public prosumerExists  hasPositiveEnergyBalance payable{\n        // users can only withdraw if they have an energy balance >= 0\n        if(checkEnergyStatus()>=0){\n            // withdraw\n            payable(msg.sender).transfer(checkEtherStatus()*10e18);\n        }\n            \n    }\n    function checkEtherStatus() public view prosumerExists returns (uint){\n        // msg.value is the deposit value\n        // modifier checks that the user actually existss\n        return p2p_contract.getEtherBalance();\n    }\n\n    function checkEnergyStatus() public view prosumerExists returns (int){\n        // modifier checks that the user actually existss\n        return p2p_contract.getEnergyBalance();\n    }\n\n    function buyEnergy(int energy) public prosumerExists buyerHasEnoughEthers(uint(energy)) {\n        p2p_contract.buyEnergy(energy);\n    }\n\n    function sellEnergy(int energy) public prosumerExists sellerHasEnoughEnergy(energy){\n        p2p_contract.sellEnergy(energy);\n    }\n\n    function energyRequest(int energy) public prosumerExists  {\n        \n        if (energy > 0){\n            //if someone has positive energy balance they wanna sell\n            sellEnergy(energy);\n        } else {\n            //if someone has negative energy balance they wanna buy\n            buyEnergy(energy);\n        }\n    }\n\n    function setEnergyStatus(int energy) public prosumerExists {\n        p2p_contract.setEnergyBalance(energy);\n    }\n\n    // function getEnergyStatus() public prosumerExists {\n    //     p2p_contract.getEnergyBalance();\n    // }\n\n    modifier prosumerExists() {\n        require(p2p_contract.getId() != address(0), \"This prosumer already exists.\");\n        _;\n    }\n\n    modifier noProsumerExists() {\n        require(p2p_contract.getId() == address(0), \"This prosumer does not exist.\");\n        _;\n    }\n\n    modifier buyerHasEnoughEthers(uint ethers) {\n\n        require(p2p_contract.getEtherBalance() >= ethers,\"This buyer does not have enough ethers.\");\n        _;\n    }\n\n    modifier sellerHasEnoughEnergy(int energy){\n        require(p2p_contract.getEnergyBalance()>=energy, \"This seller is trying to sell energy it does not have.\");\n        _;\n    }\n    \n    modifier hasPositiveEnergyBalance(){\n        require(p2p_contract.getEnergyBalance()>=0, \"This buyer has a negative energy balance and cannot withdraw.\");\n        _;\n    }\n\n\n}\n\n\ncontract p2p {\n    struct Prosumer {\n        address id;\n        int energyBalance;\n        uint etherBalance;\n    }\n\n    mapping (address=>Prosumer) prosumers;\n    address[] listOfProsumers;\n\n    function addNewProsumer() public {\n        // prosumer = Prosumer(msg.sender,0,0);\n        prosumers[msg.sender] = Prosumer(msg.sender,0,0);\n        listOfProsumers.push(msg.sender);\n    }\n\n    function buyEnergy(int energy) public {\n        // iterate over listOfProsumers\n        // find someone that has positive energy balance and transfer\n        for (uint i = 0; i<listOfProsumers.length; i++){\n            //they are a seller\n            if(prosumers[listOfProsumers[i]].energyBalance>0){\n                    // if prosumer we are on has enough energy to sell to cover our transaction do it all\n                if (prosumers[listOfProsumers[i]].energyBalance>=energy){\n\n                    // increase our energy balance\n                    prosumers[msg.sender].energyBalance += energy;\n\n                    // decrease their energy balance\n                    prosumers[listOfProsumers[i]].energyBalance -= energy;\n\n                    // increase their ether balance\n                    prosumers[msg.sender].etherBalance += uint(energy);\n\n                    // decrease our ether balance\n                    prosumers[listOfProsumers[i]].etherBalance -= uint(energy);\n\n                    break;\n                    //break loop as no more buying needs to occur\n\n                //if prosumer can sell less energy than we need but can sell some\n                } else if (energy>prosumers[listOfProsumers[i]].energyBalance){\n\n                    // update how much energy we still want to buy\n                    energy -= prosumers[listOfProsumers[i]].energyBalance;\n\n                    // increase our energy balance by their energy balance\n                    prosumers[msg.sender].energyBalance += prosumers[listOfProsumers[i]].energyBalance;\n\n                    // decrease our ether balance by how much we bought\n                    prosumers[msg.sender].etherBalance -= uint(prosumers[listOfProsumers[i]].energyBalance);\n\n                    // increase their ether balance to how much they sold\n                    prosumers[listOfProsumers[i]].etherBalance += uint(prosumers[listOfProsumers[i]].energyBalance);\n\n                    // decrease their energy balance to zero\n                    prosumers[listOfProsumers[i]].energyBalance = 0;\n\n                }\n            }\n\n            \n\n        }\n    }\n\n    function sellEnergy(int energy) public {\n\n        //check that we can sell this much energy\n\n        for (uint i = 0; i<listOfProsumers.length; i++){\n            // //they want to buy and have enough ethers to do so\n            if (prosumers[listOfProsumers[i]].energyBalance<0 ){\n\n                int amountTheyCanBuy = prosumers[listOfProsumers[i]].energyBalance;\n                // //check whether they have less ethers than they do a need for energy\n                // //this means that we cannot sell them how much energy we need but only some.\n                // if((-prosumers[listOfProsumers[i]].energyBalance)>prosumers[listOfProsumers[i]].etherBalance){\n                //     //they do not have enough ethers to pay for all the energy they want\n                //     amountTheyCanBuy = prosumers[listOfProsumers[i]].etherBalance;\n                // } else {\n                //     //they have enough ethers so the amount they can buy is the negative of their negative energy balance\n                //     // energy balance = -6\n                //     // amount they can buy = +6\n                //     amountTheyCanBuy = -prosumers[listOfProsumers[i]].energyBalance;\n                // }\n\n\n\n\n                // they want to buy all the energy we are selling\n                // if the prosumers energy balance is enough \n                if(amountTheyCanBuy>=energy){\n                    \n                    // increase their energy balance\n                    // decrease their ether balance\n                    // increase our ether balance\n                    // decrease our energy balance\n\n                    prosumers[listOfProsumers[i]].energyBalance+=energy;\n                    prosumers[listOfProsumers[i]].etherBalance-=uint(energy);\n                    \n                    prosumers[msg.sender].energyBalance -= energy;\n                    prosumers[msg.sender].etherBalance += uint(energy);\n\n                //if the energy they want to to buy is less than what we want to sell but we still will sell them some\n\n\n                // they do not wanna buy all the energy we wanna sell (their energy balance is bigger than -energy)\n                // prosumers[listOfProsumers[i]].energyBalance>-energy \n                \n                // and they have enough money to cover this transaction\n                //  && prosumers[listOfProsumers[i]].etherBalance>prosumers[listOfProsumers[i]].energyBalance\n\n                } else if (amountTheyCanBuy<energy ){\n                    \n                    //give them all the energy they want to buy.\n                    //  minus the energy we want to sell by their absolute balance, this means that our positive energy value goes down\n                    // energy -= abs(prosumers[listOfProsumers[i]].energyBalance);\n\n                    //amount we are still looking to sell goes down by amountTheyCanBuy\n                    energy-=amountTheyCanBuy;\n                    //amount of energy we have goes down by amountTheyCanBuy\n                    prosumers[msg.sender].energyBalance -= amountTheyCanBuy;\n\n                    //our ether balance goes up by how much we sold\n                    prosumers[msg.sender].etherBalance += uint(amountTheyCanBuy);\n\n                    // their ether balance goes down by how much they bought\n                    prosumers[listOfProsumers[i]].etherBalance-=uint(amountTheyCanBuy);\n\n                    // their energy balance goes up by how much they bought\n                    prosumers[listOfProsumers[i]].energyBalance+=amountTheyCanBuy;\n                }\n            }\n        }\n    }\n\n    function getEnergyBalance() public view returns (int) {\n        return prosumers[msg.sender].energyBalance;\n    }\n\n    function setEnergyBalance(int energy) public {\n        prosumers[msg.sender].energyBalance=energy;\n    }\n\n    function getEtherBalance() public view returns (uint) {\n        return prosumers[msg.sender].etherBalance;\n    }\n\n    function getId() public view returns (address) {\n        return prosumers[msg.sender].id;\n    }\n\n    function setEtherBalance(uint ethers) public {\n        prosumers[msg.sender].etherBalance=ethers;\n    }\n\n}",
  "sourcePath": "/Users/antonteasdale/Documents/blockchain/cw/contracts/contracts.sol",
  "compiler": {
    "name": "solc",
    "version": "0.8.19+commit.7dd6d404.Emscripten.clang"
  },
  "schemaVersion": "3.4.13",
  "updatedAt": "2023-05-02T15:05:30.469Z",
  "devdoc": {
    "kind": "dev",
    "methods": {},
    "version": 1
  },
  "userdoc": {
    "kind": "user",
    "methods": {},
    "version": 1
  }
}